:104000001000000000040004F6C8986C0040021084
:104010001D40021032ADD25DBBBB715910B50C48CA
:104020000C4A121A002100F0C9F80B480B4A121A68
:104030000B4900F081F80B480B4A121A0B4900F0AB
:104040007BF80B4A0B4B1A6000F058F810BDC046C5
:104050000038062074380620003806200038062074
:104060005C42021074380620743806205C4202104C
:10407000BBBB7159200000407047000070B584B090
:1040800001AC114B220023CB23C28022D2040F4B60
:104090001A6024220E4B1A600E4D0020AB68984720
:1040A00002202B699847AE6AE12149020A48B047CD
:1040B00001211520B04701211620B0476B690B2163
:1040C0002000984704B070BD504202100C300070C0
:1040D00010300070F8550010010000027047704762
:1040E00010B5034A09210320E3F73AFD10BDC0468D
:1040F000DF40021010B5FFF7F1FF10BD10B57422BC
:104100000021094800F05AF8084A094B1A60094989
:104110000220E0F7EBFBFFF7AFFFFFF7E1FFFFF750
:10412000DDFFFFF7ABFF10BD00380620F5400210A1
:1041300068D40520E1400210F0B505000F2A2FD900
:104140000B0003439B0734D116000C000300103E04
:10415000350901352D01451927681F6067685F60C3
:10416000A7689F60E7681034DF6010339D42F3D189
:104170000F239E431036851989191340032B1AD932
:104180001E1F0023B4080134A400CF58EF5004339D
:10419000A342FAD10324A643331D2240C918ED18C7
:1041A000002A05D00023CC5CEC5401339342FAD1B1
:1041B000F0BD0500F6E71A00F2E7C046F0B5830748
:1041C00043D0541E002A3FD0CEB20200032502E0A5
:1041D0001A00013C38D3531C16702B42F8D1032C23
:1041E0002AD9FF220A40150215432A0415430F2C31
:1041F00014D927001A00103F3E09013636019E19D6
:10420000156055609560D56010329642F8D10F2246
:1042100097431037DB191440032C0DD91A00271FC0
:10422000BE080136B6009E1920C2B242FCD103225C
:1042300097430437DB191440002C05D0C9B21C1970
:10424000197001339C42FBD1F0BD14000300C6E796
:1042500048656C6C6F20576F726C64000000000042
:10426000000000000000000000000000000000004E
:10427000000000000000000000000000000000003E
:10428000000000000000000000000000000000002E
:10429000000000000000000000000000000000001E
:1042A000000000000000000000000000000000000E
:1042B00000000000000000000000000000000000FE
:1042C00000000000000000000000000000000000EE
:1042D00000000000000000000000000000000000DE
:1042E00000000000000000000000000000000000CE
:1042F00000000000000000000000000000000000BE
:1043000000000000000000000000000000000000AD
:10431000000000000000000000000000000000009D
:10432000000000000000000000000000000000008D
:10433000000000000000000000000000000000007D
:10434000000000000000000000000000000000006D
:10435000000000000000000000000000000000005D
:10436000000000000000000000000000000000004D
:10437000000000000000000000000000000000003D
:10438000000000000000000000000000000000002D
:10439000000000000000000000000000000000001D
:1043A000000000000000000000000000000000000D
:1043B00000000000000000000000000000000000FD
:1043C00000000000000000000000000000000000ED
:1043D00000000000000000000000000000000000DD
:1043E00000000000000000000000000000000000CD
:1043F0000000000000000000000000005457829AF6
:00000001FF
