:020000041002E8
:10401C0010B50C480C4A121A002100F0EBF80B48B2
:10402C000B4A121A0B4900F0A3F80B480B4A121A50
:10403C000B4900F09DF80B4A0B4B1A6000F028F866
:10404C0010BDC046003806207838062000380620FF
:10405C0000380620A4420210783806207838062052
:10406C00A4420210BBBB715920000040704770473E
:10407C007047000010B5034A09210320E3F76AFDDD
:10408C0010BDC0467D40021010B5FFF7F0FF10BD0B
:10409C0010B5742200210F4800F0ACF800210E4836
:1040AC00DFF746F80D4B186000280DD00C4A0D4B6D
:1040BC001A600D490220E0F713FCFFF7D7FFFFF75A
:1040CC00D9FFFFF7D4FF10BD012149420330DEF7C1
:1040DC00FBFFEBE7003806209442021074380620F0
:1040EC009540021068D405208140021010B5194B80
:1040FC001C68220A184B1A4201D101239C43A2B21C
:10410C0079210020DDF7D8FBE2B278210020DDF721
:10411C008DFB124B1C68220A0F4B1A4201D1012352
:10412C009C43A2B279210120DDF7C6FBE2B27821D3
:10413C000120DDF77BFB0A4B1A68D2B27F210020ED
:10414C00DDF774FB074B1A68D2B27F210120DDF733
:10415C006DFB10BD00010870F7FFFF000401087033
:10416C00300108703401087010B5FFF7BFFFFCE791
:10417C00F0B505000F2A2FD90B0003439B0734D150
:10418C0016000C000300103E350901352D014519B0
:10419C0027681F6067685F60A7689F60E7681034D6
:1041AC00DF6010339D42F3D10F239E4310368519E7
:1041BC0089191340032B1AD91E1F0023B40801348C
:1041CC00A400CF58EF500433A342FAD10324A643E2
:1041DC00331D2240C918ED18002A05D00023CC5CF1
:1041EC00EC5401339342FAD1F0BD0500F6E71A0006
:1041FC00F2E7C046F0B5830743D0541E002A3FD0E7
:10420C00CEB20200032502E01A00013C38D3531C45
:10421C0016702B42F8D1032C2AD9FF220A40150222
:10422C0015432A0415430F2C14D927001A00103FEC
:10423C003E09013636019E19156055609560D560B2
:10424C0010329642F8D10F2297431037DB191440E5
:10425C00032C0DD91A00271FBE080136B6009E1973
:10426C0020C2B242FCD1032297430437DB1914401D
:10427C00002C05D0C9B21C19197001339C42FBD11A
:10428C00F0BD14000300C6E77541021000000000E9
:08429C0001000000B004000065
:040000051002401D88
:00000001FF
