:104000001000000000040004F6C8986C0040021084
:104010001D40021032ADD25DBBBB715910B50C48CA
:104020000C4A121A002100F077F90B480B4A121AB9
:104030000B4900F02FF90B480B4A121A0B4900F0FC
:1040400029F90B4A0B4B1A6000F06CF810BDC04602
:104050000038062074380620003806200038062074
:10406000AC4302107438062074380620AC430210AA
:10407000BBBB71592000004070477047704700007B
:1040800010B504000A4BC218920253695B0B5B0324
:104090005361084B1A68FF218A431A601A6806495F
:1040A0000A401A6000F09CF8200000F0CBF810BD28
:1040B00005001C00142C0070FF00FFFF10B5040069
:1040C0006422064900F064F83220E0F7D1FE2000B7
:1040D00000F086F8200000F0CFF810BD2A030000A1
:1040E00010B50B4A09210320E3F73AFD094A0621DE
:1040F0000120E3F735FD084C220002210020E3F700
:104100002FFD220001210020E3F72AFD10BDC0464B
:104110007D400210BD4002108140021010B5FFF733
:10412000ACFF10BD10B574220021084800F0F4F86F
:10413000074A084B1A6008490220E0F7D7FBFFF74F
:104140009BFFFFF7CDFFFFF798FF10BD003806205B
:104150001D41021068D40520E14002100A4B9C4624
:10416000604480028368FF229343114019438160B9
:1041700083680649194080235B000B438360836892
:10418000934383607047C04607001C00FFFEFFFF9B
:10419000F8B505000E0017001100E2F7B5FA0E4B56
:1041A0001C6839000D48DCF726F902000021B042F6
:1041B0000DD923039B0D9900CB185B000021B3425E
:1041C00005D23002801B1100DCF70BF9010028003A
:1041D000FFF7C4FFF8BDC0461830007040420F0022
:1041E00010B504003321DDF737FA4205520D4305BF
:1041F0001AD413001B041B0CC00A80B2C20602D5DD
:104200002022524210431900814000280FDD89B25C
:104210002000E2F779FA084B9C466444A402A368A4
:10422000064A1340A36010BD054B1343E2E740422A
:1042300003411900EBE7C04607001C00FFFEFFFF2B
:1042400000F8FFFF094B9C46604480020368084A5F
:1042500013400360036A074A1A408023DB001343BC
:104260000362036A9B0A9B020362704707001C00FB
:10427000FFFFF3FFFFFBFFFF044B9C4660448002FF
:10428000036A034A134003627047C04607001C00DC
:10429000FFFBFFFFF0B505000F2A2FD90B000343EA
:1042A0009B0734D116000C000300103E3509013580
:1042B0002D01451927681F6067685F60A7689F60C8
:1042C000E7681034DF6010339D42F3D10F239E4323
:1042D0001036851989191340032B1AD91E1F002384
:1042E000B4080134A400CF58EF500433A342FAD1EC
:1042F0000324A643331D2240C918ED18002A05D017
:104300000023CC5CEC5401339342FAD1F0BD05009C
:10431000F6E71A00F2E7C046F0B5830743D0541E13
:10432000002A3FD0CEB20200032502E01A00013C71
:1043300038D3531C16702B42F8D1032C2AD9FF22F4
:104340000A40150215432A0415430F2C14D92700DF
:104350001A00103F3E09013636019E19156055605E
:104360009560D56010329642F8D10F2297431037EE
:10437000DB191440032C0DD91A00271FBE08013683
:10438000B6009E1920C2B242FCD1032297430437E3
:10439000DB191440002C05D0C9B21C191970013367
:1043A0009C42FBD1F0BD14000300C6E700000000F2
:1043B00000000000000000000000000000000000FD
:1043C00000000000000000000000000000000000ED
:1043D00000000000000000000000000000000000DD
:1043E00000000000000000000000000000000000CD
:1043F000000000000000000000000000EA0B6F0D4C
:00000001FF
