:1040000010000000000C000CED9A29830040021003
:104010001D40021032ADD25DBBBB715910B50C48CA
:104020000C4A121A002100F0C1FB0B480B4A121A6D
:104030000B4900F079FB0B480B4A121A0B4900F0B0
:1040400073FB0B4A0B4B1A6000F052FB10BDC046CD
:1040500000380620F43806200038062000380620F4
:1040600040480210F4380620F43806204048021078
:10407000BBBB71592000004070470000002806D0EB
:10408000064A1368FF208343194311607047044AAE
:104090001368FF30834319431160F7E7482C007021
:1040A000342C0070002808D0084A13685B0A5B02B1
:1040B000C905C90D194311607047054A13685B0AA9
:1040C0005B02C905C90D19431160F5E7402C00706A
:1040D0002C2C0070F8B50400B421DDF7BDFA4305BF
:1040E0005B0D1D00420501D55D4D1D43B42120002F
:1040F000DDF7B2FAC00A80B2C30602D520235B42C4
:1041000018432B041B0C1F008740002800DC91E0A3
:10411000BFB233212000DDF79FFA43055B0D1D0080
:10412000420501D54E4D1D4333212000DDF794FAA1
:10413000C00A80B2C30602D520235B4218432B0479
:104140001B0C1E008640002800DC77E0002F00D109
:10415000B7B2B900C91989004248DCF74CF905002B
:104160003104090C8B00591889003E48DCF743F9EB
:1041700029003D4B9D4200D9190089B23B4B7E225C
:10418000995204329952384A904200D91000802244
:1041900098522000FFF786FF35490B6835480340E9
:1041A0008022520013430B6033490B6803401A43CB
:1041B0000A6000212000FFF761FF2C4B00227C21C8
:1041C0005A5404395A5402395A5444392000DDF7FC
:1041D00043FA43055B0D1D00420501D5204D1D43EB
:1041E00032212000DDF738FAC00A80B2C30602D5BA
:1041F000202252421043421C2B009340002A21DD12
:104200001A00FF2B00D9FF2293009B18DB009B189C
:104210005B09772215498B540D007223CA5C052176
:104220002000E3F7B5FC7E23EA5A0233EB5A9A42A8
:104230000CD8F8BD404203411F0069E740420341EA
:104240001E0083E7C0432B000341D9E70021200073
:10425000FFF714FF002205212000E3F799FCE8E7AF
:1042600000F8FFFF40420F00FF0100006C380620FD
:10427000342C0070FFFEFFFF482C007010B50400C6
:104280000F4B00227C215A5404395A5402395A5493
:104290000C490B680C4803400132FF3213430B609A
:1042A0000A490B6803401A430A6000212000FFF707
:1042B000E5FE002205212000E3F76AFC10BDC046A0
:1042C0006C380620342C0070FFFEFFFF482C007075
:1042D00010B5224B80229A5A7E215B5A934235D8E0
:1042E0007C231E49CB5C022B27D80A007824095D69
:1042F000013111557621515C013C125D8A4206D98B
:10430000164AD31873331B78C9187623D154134C2B
:104310007623E15CFFF7B2FE7C23E25CA3187933DD
:104320007821615C1B78994210D30C4B01327C21BF
:104330005A5400217822995408E082230749C95A27
:104340008A4204D800220521E3F722FC10BD013186
:1043500089B2024AD152FFF7A5FEF7E76C38062072
:1043600070B52849B1208000274B0B50274A284BB5
:10437000536008241C7000245C7001349C7001346C
:10438000DC7001341C7101345C7101349C710134A6
:10439000DC7101341C721F4B13601F4B9360D360A0
:1043A0001E4C23601E4B1A501E4CB225AD001E4AF7
:1043B0004A511E4A1E4810601E489060D0601E4E32
:1043C00030605A5104351D4A4A511D4A1D4810603B
:1043D0001D489060D0601D4E30605A51B42080005E
:1043E0001B4A0A501B4A1C4911601C499160D1604C
:1043F0001B4D29601A50F0235B036269134363610C
:1044000070BDC04654D90520654402101C380620F2
:1044100060380620B12381C75C3806201438062096
:1044200034D5052034D90520954402103C380620A7
:10443000B256C4C13038062038380620D94402109C
:104440004C380620B356C4C1003806203438062044
:104450001D45021004380620B42382C118380620F6
:104460002C38062010B50423994300D010BDB1317B
:10447000DDF7B6F8C31EDBB2032B04D90721722384
:10448000034AD154F2E77223014AD054EEE7C04602
:104490006C3806200423994312D1002811D1B2238D
:1044A0009B000B4AD3589B68002B09D01878094A07
:1044B0007321505458780131505499787523D15450
:1044C0007047B2239B00024AD358DB68ECE7C04632
:1044D00034D505206C3806200423994312D10028D6
:1044E00011D1B3239B000B4AD3589B68002B09D0F2
:1044F0001878094A792150545878013150549978E4
:104500007B23D1547047B3239B00024AD358DB6806
:10451000ECE7C04634D505206C380620F8B5040019
:104520000D0004230A009A4300D0F8BDB421DDF742
:1045300093F843055B0D1E00420501D5304E1E4326
:10454000B4212000DDF788F8C00A80B2C30602D586
:1045500020235B42184333041B0C1E0086400028B6
:1045600046DDB6B233212000DDF776F847057F0D32
:10457000430501D5224B1F4333212000DDF76CF8A2
:10458000C00A80B2C30602D520235B4218433B0415
:104590001B0C1F00874000282EDD002E00D1BEB26C
:1045A000B100891989001748DBF725FF0600390497
:1045B000090C8B00591889001248DBF71CFF3100E9
:1045C000114B9E4200D9190089B2104B7E2299529C
:1045D000043299520C4A904200D91000802298521D
:1045E0002000FFF75FFD29002000E8F795FA9CE71F
:1045F000404203411E00B4E7404203411F00CCE7A4
:1046000000F8FFFF40420F00FF0100006C38062059
:1046100010B500218423024AD154FFF75BFD10BD81
:104620006C38062010B5040084230D4AD35C002B9F
:1046300000D010BD183300220121E4F797F92000C3
:10464000FFF71CFE074B9C466444A40263695B0BA6
:104650005B03636101218423014AD154E9E7C04629
:104660006C38062005001C0010B5194A1368194C57
:104670002340802149000B431360174B18682040EA
:10468000014319601168FF20814311601A68824359
:104690001A60124C22000221FA38E3F761FA220074
:1046A00001210520E3F75CFA220002210320E3F751
:1046B00057FA220001210320E3F752FA084A0621A3
:1046C0000120E3F74DFA07490520E3F733FA10BD5F
:1046D000342C0070FFFEFFFF482C007025460210AE
:1046E00011460210D142021010B5FFF739FE10BD7D
:1046F00010B588220021084800F058F8074A084BF6
:104700001A6008490220E0F7F1F8FFF7B5FCFFF75F
:10471000ABFFFFF725FE10BD6C380620E9460210FE
:1047200068D4052069460210F0B505000F2A2FD97C
:104730000B0003439B0734D116000C000300103E0E
:10474000350901352D01451927681F6067685F60CD
:10475000A7689F60E7681034DF6010339D42F3D193
:104760000F239E431036851989191340032B1AD93C
:104770001E1F0023B4080134A400CF58EF500433A7
:10478000A342FAD10324A643331D2240C918ED18D1
:10479000002A05D00023CC5CEC5401339342FAD1BB
:1047A000F0BD0500F6E71A00F2E7C046F0B5830752
:1047B00043D0541E002A3FD0CEB20200032502E0AF
:1047C0001A00013C38D3531C16702B42F8D1032C2D
:1047D0002AD9FF220A40150215432A0415430F2C3B
:1047E00014D927001A00103F3E09013636019E19E0
:1047F000156055609560D56010329642F8D10F2251
:1048000097431037DB191440032C0DD91A00271FCA
:10481000BE080136B6009E1920C2B242FCD1032266
:1048200097430437DB191440002C05D0C9B21C197A
:10483000197001339C42FBD1F0BD14000300C6E7A0
:104840000000000000000000000000000000000068
:104850000000000000000000000000000000000058
:104860000000000000000000000000000000000048
:104870000000000000000000000000000000000038
:104BF000000000000000000000000000FF069A62B4
:00000001FF
