:10800000100000000018001801B58F380080021021
:108010001D80021032ADD25DBBBB715910B50C484A
:108020000C4A121A002101F06DF80B480B4A121A83
:108030000B4901F025F80B480B4A121A0B4901F0C5
:108040001FF80B4A0B4B1A6000F0F6FF10BDC0463C
:1080500000380620343B0620003806200038062071
:10806000A0950210343B0620343B06201C800210F1
:10807000BBBB7159200000400249D8235B00024A73
:10808000D1507047B582021074D00520F8B50400B5
:10809000DA210020D9F7E0FA4205520D43051AD43F
:1080A00013009BB2002B19D1554A136855490B4058
:1080B0001360554A136855490B401360FC2120009A
:1080C000D9F7CAFA43055B0D420501D5504A13435F
:1080D000002B35D1F8BD4E4B1343E2E74D4D2B68D5
:1080E00007229343063A13432B602B6807329343CE
:1080F0002B602B68083213432B6006210020D8F731
:1081000075FE012206210020D8F790FE3C490B683D
:108110003C4A1A4080235B0013430B603A490B68CA
:108120003A4A1A4080235B0113430B600022062168
:108130000020D8F7C3FD2B68202213432B60BDE736
:1081400001219823344AD15411392000D9F7EFFA8C
:10815000050028212000D9F77FFA0700C30A9BB247
:108160001E00DA0602D5202676421E43FC2120009E
:10817000D9F772FAC30A9BB29C46DA0603D52022CD
:1081800052421A4394467A05520D7B052AD41300B5
:108190006B43310009391A008A40002925DD410569
:1081A000490D430501D51A4B19434D436146093921
:1081B0002B008B4000291DDD9B18174988200A5091
:1081C0008C228B50154A94466444A4022269D20A38
:1081D000D20213498B4200D90B005B055B0D1343A0
:1081E000236177E70A4B1343D2E70922961B3341F9
:1081F0001A00D4E7092361465B1A1D412B00DBE717
:10820000004C0070FFFEFFFF54300070FFEFFFFFD7
:1082100000F8FFFF143000706C3A062005001C00C7
:10822000FF07000010B5DA210020D9F715FA430541
:108230005B0D420501D5194A134319490A681948CB
:1082400002400A6018490A68184802400A609BB256
:10825000002B00D110BD164C2368082293432360E5
:10826000236808321343236006210020D8F7BEFD9F
:10827000012206210020D8F7D9FD2368202293434C
:108280002360DF3206210020D8F718FD236807227B
:108290009343063A13432360DCE7C04600F8FFFF30
:1082A000004C0070FFFEFFFF54300070FFEFFFFF37
:1082B0001430007070B582B004000D00DDF792FB41
:1082C000C4212000D9F7A8F922490B680201120D38
:1082D0000005000D834393430B60012601960023A4
:1082E0000093002200212000DEF7E2F81A4BE31889
:1082F0009B025A6819490A405A601A6A03218A4344
:108300001A6229002000DDF7F7FF15490B680A689B
:10831000120C12041348034013430B60A300124ACB
:10832000944663441E60012279212000D9F70EFA99
:108330000E4B1B780E4A944663449B029E66002CAB
:1083400002D101220B4B1A600020FFF76BFF02B035
:1083500070BDC046282C007005001C00FFFFFFFE0A
:1083600060500070CFFF00005001087054EA0520F3
:108370000F001C001054007010B59823074AD35CFE
:10838000002B01D0002800D010BD00219923D1542A
:1083900004220231DFF7FCFBF6E7C0466C3A062008
:1083A00010B51B4B8C229A5888215958531A5B08D8
:1083B000013BD21A1748824224D88C20144C2250F8
:1083C0008C2213488258914201D2002B0AD1104BC3
:1083D0008C22995000210C32995400220231002045
:1083E000DFF7D6FB0A4999228B5C01338B540A488C
:1083F0000368DB0ADA028C23CB585B055B0D134361
:10840000036010BD034C8C2201488450D8E7C0465D
:108410006C3A0620FF0700001014007010B50E4BD8
:108420001B1884331B78002B0FD002001C329200E3
:10843000094B9B185B68002B07D002001A32920090
:10844000054B9B185B68002B00D110BD0522032152
:10845000DFF79EFBF9E7C0466C3A062010B5040032
:1084600000220321DFF794FB002233212000D9F7FB
:108470006DF910BD10B504002D4B02001E329200A4
:108480009A181B1884331978090901315068D7F7F5
:10849000A8FF002936D1002C17D1264B1B68DB051D
:1084A000DB0D234A121986321278002A3BD12100B3
:1084B0001A3189001E4A52185268934217D31C4A37
:1084C00012198632012111702FE01B4B1B68DB054E
:1084D000DB0DE6E721001C318900154A521852686D
:1084E000934222D8124A12198632002111700133A8
:1084F000002C0FD010490A68520A5202DB05DB0D2E
:1085000013430B601E34A300094CE4186368013365
:10851000636010BD07490A68520A5202DB05DB0D91
:1085200013430B60EEE7012AD4D0013BE0E7C046DD
:108530006C3A06202C2C0070402C0070F0B5C6461A
:1085400000B582B00400D521D9F74AF80190002186
:108550002000E1F7F1FC0090444BE3189B02DB6A3A
:108560009846CE212000D9F777F8C30A9BB2DA06E5
:1085700002D52022524213434205520D410501D536
:108580003B490A4319000A3115008D40002950DD8E
:1085900033212000D9F760F8C30A9BB2DA0602D56E
:1085A0002022524213434205520D410501D5304964
:1085B0000A4317009F40002B41DDEB212000D9F733
:1085C0000FF886003618760041466943090900987D
:1085D000D7F707FF80023900D7F703FF254B584331
:1085E000000C0022864202D90132019B1A40002C65
:1085F00029D1214B1B689B049B0F002B15D0002A0F
:1086000013D0002C24D11D4A1368DB05DB0DBC21DF
:108610001B48435013685B0A5B021A490B43136003
:10862000032204212000DFF7B3FA02B004BC904615
:10863000F0BD0A214942CB1ADA401500A8E75B4297
:10864000DA401700B9E70C4B1B681B049B0FD4E7FB
:108650000D4A1368DB05DB0DC02109484350136840
:108660005B0A5B0207490B431360D9E70D001C004E
:1086700000F8FFFF40420F00002C00702C2C00700F
:108680006C3A0620FF010000402C007010B5040079
:10869000D521D8F7A5FF002C08D10C4B1B689B04F3
:1086A0009B0F002B01D0C30705D410BD074B1B68DF
:1086B0001B049B0FF5E7002204212000DFF768FA76
:1086C000002233212000D9F741F8EEE7002C00709A
:1086D00010B5002812D1164B1B68DB05DB0D013BE2
:1086E000BC2214498A5893421ED911490A68520A79
:1086F0005202DB05DB0D13430B6010BD0E4B1B68F4
:10870000DB05DB0D013B01002E318900094A5218BF
:108710005268934208D908490A68520A5202DB0596
:10872000DB0D13430B60E8E7FFF7B0FFE5E7C0465A
:108730002C2C00706C3A0620402C0070F0B5C64618
:1087400000B55A4AE8205A4B13505A495A4B0B600D
:108750005A4B8B60CB605A4C23605A4B19505A4984
:10876000043080465948444610515948594D456097
:10877000E63C2C7002276F70574D0560574D8560A1
:10878000C560574E356045465851F02655489051C2
:108790005548564D45602C706F70554D0560554DD0
:1087A0008560C560544F3D609851E02040054D689C
:1087B00028434860C725AD00504850515048514E9D
:1087C0000660514E8660514EC6605851143550486F
:1087D00050515048504E0660504E8660504EC66014
:1087E000585110354F4850514F48504E0660504E2A
:1087F0008660504EC660585108354F4850514F481A
:108800004F4E06604F4E86604F4EC660585104353D
:108810004E4850514E484F4E06604F4E86604F4E68
:10882000C6605851D426B6004D4890514D484E4D23
:1088300005604E4D8560C5604D4F3D6098514D4877
:108840004D4D05604D4D85604D4DC560D525AD0044
:10885000585118364B4890514B484C4D05604C4D83
:108860008560C5604B4F3D6098514B488D692843EA
:108870008861FC25AD0049485051494A494850603B
:108880000326067004364670033E8670C470464860
:108890001060464890604648D0605A5180235B057E
:1088A000CA691343CB6104BC9046F0BD54D905207E
:1088B000B58902106C3906203A2381C1B4390620EB
:1088C0008039062034D5052034D90520298A0210A4
:1088D0000C3A0620EC3906203B2382C3CC39062013
:1088E000F4390620B98A021034390620483A0620A5
:1088F0003C2382C3B83906207C390620498B0210FC
:108900002C3A0620C72381C1403A0620F8390620B8
:108910000D8C02101C3A0620CC2382C1543906204B
:10892000503A0620AD8E021044390620D056DF4161
:108930009439062004390620858D021084390620DA
:10894000D22382C168390620D8390620A98D0210A9
:10895000543A0620D32382C1D0390620E0390620BC
:10896000CD8D021024390620D456C8C1E439062022
:10897000643A0620FC390620D52381C1D43906206B
:108980004C3A06200D8D0210BC390620DA2382C134
:10899000443A0620683A062080103D04818D02107A
:1089A00058390620F0390620FC2382C5DC39062020
:1089B0003C3A062070B50423994300D070BD3A318B
:1089C000D8F70EFE020012490B681248184053B245
:1089D000DB0F5B0203430B600B680F481840130763
:1089E000DB0F9B0203430B600C4801680C4C2140D9
:1089F0009305C0252D052B400B43036009490868EA
:108A0000044003201040800620430860D6E7C0469B
:108A100054300070FFFDFFFFFFFBFFFF00440070BC
:108A2000FFFFFFF30048007070B504000423994372
:108A300000D070BD3A31D8F7D3FD05003B212000AE
:108A4000D8F70AFEC30A9BB2DA0602D520225242A8
:108A500013434205520D410501D514490A436906E5
:108A600012D51900103110008840002906DD104988
:108A7000D7F7B7FC00120F4B1860DAE71021494214
:108A8000CB1A1A411000F2E718000830110081409B
:108A9000002805DDFF2900D9FF21064A1160C8E73B
:108AA00008214942CB1A1A411100F3E700F8FFFFF1
:108AB000FFFF00000444007070B5040004239943D4
:108AC00000D070BD3A31D8F78BFD05003C21200065
:108AD000D8F7C2FDC30A9BB2DA0602D52022524261
:108AE00013434205520D410501D514490A43690754
:108AF00012D51900103110008840002906DD1049F8
:108B0000D7F76FFC00120F4B1860DAE710214942CB
:108B1000CB1A1A411000F2E718000830110081400A
:108B2000002805DDFF2900D9FF21064A1160C8E7AA
:108B300008214942CB1A1A411100F3E700F8FFFF60
:108B4000FFFF00000448007070B50400042399433F
:108B500000D070BDC731D8F743FD0200264B1B196A
:108B6000843318700F20104000046421D7F739FCBB
:108B7000050033212000D8F76FFD43055B0D42054A
:108B80002AD41A00C00A80B2C30602D520235B4251
:108B9000184311008140002821DD0904090C8B00D5
:108BA000591889001548D7F71CFC154B984200D975
:108BB000180045432D142B18124A934213D8210054
:108BC0001A3189000C4A521853601C34A4000A4B15
:108BD0001C19401B6060BCE70B4A1A43D2E74042B5
:108BE00002411100D9E722001A329200024B9B1871
:108BF000034A5A60E9E7C0466C3A062040420F003B
:108C0000FF010000FF1F000000F8FFFFF8B504009F
:108C100000291BD0042911D0F8BD1F23334043E0A5
:108C200035480168354C21409B03FE2464032340F2
:108C30000B43036042E0072119404AE0CC21D8F7FA
:108C40000BFD02000500C307E6D50BE0CC21D8F7E9
:108C500003FD02000500C307DED5A8232849CB5831
:108C6000002B17D1C4232649CB5C002B12D1224EF6
:108C700030680B007F210840AC27D8553068800B46
:108C80000140AD2019541F490868A82158500120FF
:108C90001C3158541A4B1B19AC3318786E086B06EC
:108CA000BBD53F21B143CB431B18002CB8D1124C8C
:108CB00020687F218843194001432160A82310497F
:108CC000C9587F260E40EB096905B4D50F2098439B
:108CD000C1430C4804687F239C4389190B402343FC
:108CE0000360036808490B40D200F821C9020A401A
:108CF0001A43026090E7C0460C000070FF3FE0FF9F
:108D00006C3A062004000070FF3FF8FF10B5042302
:108D1000994300D010BDDA31D8F79EFCC30A9BB24C
:108D20001900DA0602D520214942194343055B0D9B
:108D3000420517D41A000F4B18681F2303405A43EB
:108D400013008B40002910DD0B4A1168FF2291436C
:108D50001A00FF2B00D9FF22FF2313400B43064AC2
:108D60001360D7E7054A1A43E5E7494213000B4170
:108D7000EAE7C04620300070A030007000F8FFFF26
:108D80007047000010B504000423994300D010BDC3
:108D9000D231D8F761FC1234A400024B1C19606078
:108DA000F5E7C04654EA052010B5040004239943B2
:108DB00000D010BDD331D8F74FFC1434A400024BBF
:108DC0001C196060F5E7C04654EA052010B50C0098
:108DD00004230A009A4324D1002823D1D4239B00E2
:108DE0001D4AD3589B68002B1BD0D97909069A7964
:108DF000120411431A7911435A7912021143D87897
:108E000000069A78120410431A7810435B781B020C
:108E10001843124B1B689B6A9847002808D1002C06
:108E20000CD010BDD4239B000B4AD358DB68DAE783
:108E300003210120404200F0E9F8F0E7074B1B68EE
:108E40009B698021064898470028EAD00321012029
:108E5000404200F0DBF8E4E734D505200038062076
:108E60008438062070B505000C00E3F70BFF002CDA
:108E700000D070BDFE212800D8F7B2FB1A28F8D127
:108E80002C23094AD35C18221A40D907C90F114371
:108E900020221A400A4340210B401A43BD312800CA
:108EA000D8F7E6FCE5E7C0463C150620704710B54C
:108EB000FFF762FA10BD10B5FFF740FB10BD10B50B
:108EC000FFF7E4F810BD10B5FFF7A8FA10BD0000D9
:108ED00010B50400FFF7DAFB2000FFF7A3F9044BFD
:108EE0009C466444A40263695B0B5B03636110BD31
:108EF00005001C0010B582B00F2801D802B010BDCB
:108F00006A46044B694611CB11C101210920D9F7EA
:108F1000F5FFF3E79891021030B585B0304A09218A
:108F20000320DEF71DFE2F4C220002210520DEF774
:108F300017FE220001210520DEF712FE2A4A092130
:108F40000220DEF70DFE294A06210120DEF708FE89
:108F5000274C220002210020DEF702FE2200012120
:108F60000020DEF7FDFD234A0B210220DEF7F8FD8D
:108F700021490220DEF7DEFD20490320DEF7DAFD7D
:108F80001F490420DEF7D6FD1E4DAF24FE232B55CE
:108F90000222524260210720E0F75EFD2A5750214D
:108FA0000720E0F7E5FC184C2300072206210020EB
:108FB000E0F778FD2300082207210120E0F772FD89
:108FC0002723039300230293802201920093063308
:108FD000303227210020DFF75DF905B030BDC046F3
:108FE000C78E02105D840210BF8E0210B78E021071
:108FF000D18E0210AF8E0210A18302107584021070
:10900000D18602106C3A0620F58E021010B50A00C7
:1090100001000F20D8F7D6FB10BD000010B5FFF7F8
:109020008DFB0349FE239B00024AD15010BDC04670
:10903000658E021054D9052010B5C82200210A48B7
:1090400000F060F8094A0A4B1A600A4A0A4B1A6093
:109050000A490220DBF74AFCFFF70EF8FFF75CFF36
:10906000FFF7DCFF10BDC0466C3A0620A09102104D
:10907000481306201D90021068D40520198F021095
:10908000F0B505000F2A2FD90B0003439B0734D1FD
:1090900016000C000300103E350901352D0145195D
:1090A00027681F6067685F60A7689F60E768103483
:1090B000DF6010339D42F3D10F239E431036851994
:1090C00089191340032B1AD91E1F0023B408013439
:1090D000A400CF58EF500433A342FAD10324A6438F
:1090E000331D2240C918ED18002A05D00023CC5C9E
:1090F000EC5401339342FAD1F0BD0500F6E71A00B3
:10910000F2E7C046F0B5830743D0541E002A3FD093
:10911000CEB20200032502E01A00013C38D3531CF2
:1091200016702B42F8D1032C2AD9FF220A401502CF
:1091300015432A0415430F2C14D927001A00103F99
:109140003E09013636019E19156055609560D5605F
:1091500010329642F8D10F2297431037DB19144092
:10916000032C0DD91A00271FBE080136B6009E1920
:1091700020C2B242FCD1032297430437DB191440CA
:10918000002C05D0C9B21C19197001339C42FBD1C7
:10919000F0BD14000300C6E701000000FFFFFFFF61
:1091A0009500950095009500950095009500950017
:1091B000940094009300930092009200910091001B
:1091C000900090008F008F008E008E008D008C002C
:1091D0008C008B008B008A008A008900890088003F
:1091E0008800870087008600860085008400840050
:1091F00083008300820082008100800080007F0065
:109200007F007E007E007D007D007C007C007B0076
:109210007A00790079007800770077007600750091
:1092200075007400740073007200720071007100A8
:1092300070006F006F006E006E006D006D006C00BE
:109240006C006B006B006A006A00690069006900CD
:1092500068006800670067006600660065006500DA
:1092600065006400640063006300630062006200E4
:10927000610061006100600060005F005F005F00EE
:109280005E005E005E005D005D005D005C005C00F5
:109290005C005B005B005B005A005A005A005900FA
:1092A00059005900580058005800570057005700FF
:1092B0005600560056005600550055005500540003
:1092C0005400540053005300530053005200520006
:1092D0005200510051005100510050005000500008
:1092E00050004F004F004F004F004E004E004E0008
:1092F0004D004D004D004D004C004C004C004C000A
:109300004B004B004B004B004A004A004A004A0009
:109310004900490049004900480048004800480009
:109320004800470047004700470046004600460007
:109330004600450045004500450045004400440006
:109340004400440043004300430043004200420005
:109350004200420042004100410041004100400003
:1093600040004000400040003F003F003F003F0001
:109370003F003E003E003E003E003D003D003D00FF
:109380003D003D003C003C003C003C003C003B00FC
:109390003B003B003B003B003A003A003A003A00F9
:1093A00039003900390039003900380038003800F8
:1093B00038003800370037003700370037003600F4
:1093C00036003600360036003500350035003500F1
:1093D00035003400340034003400340033003300EE
:1093E00033003300330032003200320032003100EB
:1093F00031003100310031003000300030003000E9
:1094000030002F002F002F002F002F002E002E00E5
:109410002E002E002E002D002D002D002D002D00E1
:109420002C002C002C002C002C002B002B002B00DF
:109430002B002A002A002A002A002A0029002900DD
:1094400029002900290028002800280028002800D9
:1094500027002700270027002600260026002600D8
:1094600026002500250025002500240024002400D6
:1094700024002400230023002300230022002200D4
:1094800022002200220021002100210021002000D2
:109490002000200020001F001F001F001F001F00D1
:1094A0001E001E001E001E001D001D001D001D00D0
:1094B0001C001C001C001C001B001B001B001B00D0
:1094C0001A001A001A001A001900190019001800D1
:1094D00018001800180017001700170017001600D2
:1094E00016001600150015001500150014001400D4
:1094F00014001300130013001200120012001200D7
:109500001100110011001000100010000F000F00DA
:109510000F000E000E000E000D000D000C000C00E0
:109520000C000B000B000B000A000A0009000900E8
:1095300009000800080007000700060006000600F2
:1095400005000500040004000300030002000200FF
:10955000010001000000FFFFFFFFFEFFFEFFFDFF17
:10956000FCFFFCFFFBFFFAFFFAFFF9FFF8FFF7FF34
:10957000F7FFF6FFF5FFF4FFF3FFF2FFF1FFF0FF57
:10958000EFFFEEFFECFFEBFFE9FFE8FFE6FFE4FF94
:10959000E2FFE0FFDDFFD9FFD8FFD8FFD8FFD8FFFB
:1095A00000000000000000000000000000000000BB
:1095B00000000000000000000000000000000000AB
:1095C000000000000000000000000000000000009B
:1095D000000000000000000000000000000000008B
:1097F000000000000000000000000000CAFB133E53
:00000001FF
