:104000001000000000080008C0B04919004002106C
:104010001D40021032ADD25DBBBB715910B50C48CA
:104020000C4A121A002100F043FA0B480B4A121AEC
:104030000B4900F0FBF90B480B4A121A0B4900F030
:10404000F5F90B4A0B4B1A6000F012F910BDC0468F
:1040500000380620E0380620003806200038062008
:1040600054450210E0380620E0380620544502107E
:10407000BBBB7159200000407047000010B582B0F2
:104080000F2816D88300181880001E4BC0184378DC
:10409000012B19D028210020E3F766FF00282AD041
:1040A000194B1B68436028210020E3F73FFF02B053
:1040B00010BD6A46154B694611CB11C1012109207B
:1040C000DEF71CFF0020E2E728210020E3F74CFF89
:1040D000002809D00C4B42681A600A23436028214B
:1040E0000020E4F7BFFEE2E7032201214942083045
:1040F000DDF768FBDBE70322012149420830DDF7E9
:1041000061FBD4E74C13062000380620444502101A
:1041100070B584B0002901D1002801D004B070BD71
:10412000B131DDF799FA06000020DDF7F1FAF40865
:10413000341BA4B245B22A0031000620E5F78CFCFE
:104140002A0021000620E5F713FC0E4B062202216F
:104150000020E5F7A7FCB2210020DDF741FA0200BC
:1041600028230393273B02937F330193002300937B
:10417000063328210020E4F78DF80620E4F742FFFB
:10418000CCE7C0467D40021070B51B49B1208000CD
:104190001A4D0D501A4B1B4A5A601B4A1A601B4A93
:1041A0009A601B4ADA601B4A13501B48B224A400D1
:1041B0000D511A4B1A4D1D601A4D9D601A4DDD6050
:1041C00013510434194D0D51194B1A4E1E601A4EDD
:1041D0009E601A4EDE60135104340D51184B19497C
:1041E0001960194999601949D9601351F0235B038B
:1041F00042691343436170BD54D905201141021037
:104200005038062060380620B12382C86438062062
:104210004838062034D5052034D905200C3806202E
:10422000B22381C12C380620443806203D430210B9
:104230001C380620B32382C1083806204C380620DB
:1042400030380620B42381C14038062004380620C7
:104250007047000010B5034A09210320E3F780FCF2
:1042600010BDC0465142021010B5FFF78DFF10BDC2
:1042700010B574220021084800F01AF9074A084BCB
:104280001A6008490220E0F731FBFFF7F5FEFFF75F
:10429000E1FFFFF779FF10BD683806206942021080
:1042A00068D405205542021010B582B00F2817D8E7
:1042B0008300181880001E4BC0184378002B21D1B2
:1042C00029210020E3F750FE002814D0194B426842
:1042D0001A600A23436029210020E4F7C3FD1EE091
:1042E0006A46154B694611CB11C101210920DEF741
:1042F00005FE0020E1E70322012149420830DDF7F5
:1043000061FA0CE029210020E3F72EFE002808D0F6
:10431000084B1B68436029210020E3F707FE02B029
:1043200010BD0322012149420830DDF74BFAF6E7C0
:104330004C130620DC3806204C45021070B584B0C2
:10434000002901D1002801D004B070BDB331DDF7E0
:1043500083F9C00A80B20400C30602D52024644257
:104360000443B3210020DDF777F945056D0D4305C2
:1043700001D529490D4358210020DDF76DF9C00A08
:1043800080B20600C30602D5202676420643582195
:104390000020DDF761F943055B0D1900420501D5E9
:1043A0001D49194372B20904090C0920E5F754FBB1
:1043B00062B22904090C0920E5F7DAFA17490B68FB
:1043C0000A68120C12041648034013430B60154B85
:1043D0000024B4229C540621033299541249092026
:1043E000E4F7F0FF01210920E5F7E8FAB421002005
:1043F000DDF7F6F8020029230393273B02937E336F
:10440000019300947C3B29210020E3F743FF09201E
:10441000E4F7F8FD98E7C04600F8FFFF6050007031
:10442000FFFD00004C130620A9420210F0B5050064
:104430000F2A2FD90B0003439B0734D116000C0021
:104440000300103E350901352D01451927681F600D
:1044500067685F60A7689F60E7681034DF601033AB
:104460009D42F3D10F239E431036851989191340BD
:10447000032B1AD91E1F0023B4080134A400CF58FF
:10448000EF500433A342FAD10324A643331D224044
:10449000C918ED18002A05D00023CC5CEC54013378
:1044A0009342FAD1F0BD0500F6E71A00F2E7C046E4
:1044B000F0B5830743D0541E002A3FD0CEB202008D
:1044C000032502E01A00013C38D3531C16702B421E
:1044D000F8D1032C2AD9FF220A40150215432A04D9
:1044E00015430F2C14D927001A00103F3E0901363E
:1044F00036019E19156055609560D5601032964260
:10450000F8D10F2297431037DB191440032C0DD933
:104510001A00271FBE080136B6009E1920C2B242FB
:10452000FCD1032297430437DB191440002C05D03B
:10453000C9B21C19197001339C42FBD1F0BD1400A3
:104540000300C6E701000000FFFFFFFF01000000BD
:10455000FFFFFFFF0000000000000000000000005F
:10456000000000000000000000000000000000004B
:10457000000000000000000000000000000000003B
:10458000000000000000000000000000000000002B
:10459000000000000000000000000000000000001B
:1047F000000000000000000000000000547124E9E7
:00000001FF
