:104000001000000000040004F6C8986C0040021084
:104010001D40021032ADD25DBBBB715910B50C48CA
:104020000C4A121A002100F069F90B480B4A121AC7
:104030000B4900F021F90B480B4A121A0B4900F00A
:104040001BF90B4A0B4B1A6000F0FAF810BDC04682
:104050000038062084380620003806200038062064
:1040600098430210843806208438062098430210B2
:10407000BBBB71592000004070B501281BD01A4C01
:10408000251872350022AA563C3040002418618859
:104090000720E5F7E1FC0022AA56E1880720E5F7B2
:1040A00067FC124B072206210020E5F7FBFC0720E6
:1040B000E4F7A8FF70BD0C4C732562577C23E15ACE
:1040C0000730E5F7C9FC62578023E15A0820E5F77D
:1040D0004FFC064B082207210120E5F7E3FC0820EE
:1040E000E4F790FFE6E7C04600380620954102104D
:1040F000F0B5D6464F464646C0B5184C0025184B7D
:104100009A46FE239946EE3B98460EE0783630708C
:10411000FA2323809A3BE380103B63813800FFF74A
:10412000ABFF01350234022D13D0EFB25346EE1827
:10413000330072334A461A7033210020DDF78CFABF
:10414000C00A80B243460342E0D020235B421843BA
:10415000DCE71CBC90469946A246F0BD74380620A8
:104160000038062070B504000D001600E2F7CCFA06
:104170001F223240D202734229009940002B06DDF3
:104180000A4392B233212000DDF79CFB70BD290069
:10419000F140F5E730B583B00F2825D88400241806
:1041A000A4001C482418257833212800DDF754FA90
:1041B000C00A80B2C30602D520225242104342B246
:1041C000154B5B1978331A706378DB0717D5290014
:1041D00038314900104B5B189988143189B2280096
:1041E000FFF7C0FF03B030BD6A460C4B694611CBE8
:1041F00011C101210920DEF781FE0024D3E7290047
:1042000038314900044B5B1899882800FFF7AAFF52
:10421000E8E7C0464C130620003806209043021001
:104220007047704710B5034A09210320E3F798FC53
:1042300010BDC0462342021010B5FFF7F1FF10BDBC
:1042400010B584220021084800F058F8074A084BAE
:104250001A6008490220E0F749FBFFF749FFFFF722
:10426000E1FFFFF7DDFF10BD0038062039420210E4
:1042700068D4052025420210F0B505000F2A2FD979
:104280000B0003439B0734D116000C000300103EC3
:10429000350901352D01451927681F6067685F6082
:1042A000A7689F60E7681034DF6010339D42F3D148
:1042B0000F239E431036851989191340032B1AD9F1
:1042C0001E1F0023B4080134A400CF58EF5004335C
:1042D000A342FAD10324A643331D2240C918ED1886
:1042E000002A05D00023CC5CEC5401339342FAD170
:1042F000F0BD0500F6E71A00F2E7C046F0B5830707
:1043000043D0541E002A3FD0CEB20200032502E063
:104310001A00013C38D3531C16702B42F8D1032CE1
:104320002AD9FF220A40150215432A0415430F2CEF
:1043300014D927001A00103F3E09013636019E1994
:10434000156055609560D56010329642F8D10F2205
:1043500097431037DB191440032C0DD91A00271F7F
:10436000BE080136B6009E1920C2B242FCD103221B
:1043700097430437DB191440002C05D0C9B21C192F
:10438000197001339C42FBD1F0BD14000300C6E755
:1043900001000000FFFFFFFF000000000000000020
:1043A000000000000000000000000000000000000D
:1043B00000000000000000000000000000000000FD
:1043C00000000000000000000000000000000000ED
:1043D00000000000000000000000000000000000DD
:1043E00000000000000000000000000000000000CD
:1043F0000000000000000000000000002F386EB038
:00000001FF
