:020000041002E8
:10401C0010B50C480C4A121A002100F0CFF80B48CE
:10402C000B4A121A0B4900F087F80B480B4A121A6C
:10403C000B4900F081F80B4A0B4B1A6000F060F84A
:10404C0010BDC04600380620743806200038062003
:10405C000038062068420210743806207438062096
:10406C0068420210BBBB7159200000407047000031
:10407C0070B584B001AC134B220003CB03C219887A
:10408C0011809B7893708022D2040F4B1A602422EB
:10409C000E4B1A600E4D0020AB68984702202B691E
:1040AC009847AE6AE12149020A48B0470121152020
:1040BC00B04701211620B0476B690B2120009847AF
:1040CC0004B070BD5C4202100C30007010300070F7
:1040DC00F855001001000002704710B5FFF7C8FF3B
:1040EC0010BD000010B5034A09210320E3F732FD8F
:1040FC0010BDC046E740021010B5FFF7EDFF10BD34
:10410C0010B574220021084800F058F8074A084BF3
:10411C001A6008490220E0F7E3FBFFF7A7FFFFF75F
:10412C00E1FFFFF7D9FF10BD003806200541021052
:10413C0068D40520F1400210F0B505000F2A2FD9E4
:10414C000B0003439B0734D116000C000300103EF8
:10415C00350901352D01451927681F6067685F60B7
:10416C00A7689F60E7681034DF6010339D42F3D17D
:10417C000F239E431036851989191340032B1AD926
:10418C001E1F0023B4080134A400CF58EF50043391
:10419C00A342FAD10324A643331D2240C918ED18BB
:1041AC00002A05D00023CC5CEC5401339342FAD1A5
:1041BC00F0BD0500F6E71A00F2E7C046F0B583073C
:1041CC0043D0541E002A3FD0CEB20200032502E099
:1041DC001A00013C38D3531C16702B42F8D1032C17
:1041EC002AD9FF220A40150215432A0415430F2C25
:1041FC0014D927001A00103F3E09013636019E19CA
:10420C00156055609560D56010329642F8D10F223A
:10421C0097431037DB191440032C0DD91A00271FB4
:10422C00BE080136B6009E1920C2B242FCD1032250
:10423C0097430437DB191440002C05D0C9B21C1964
:10424C00197001339C42FBD1F0BD14000300C6E78A
:0C425C00486F6C61204D756E646F0000AF
:040000051002401D88
:00000001FF
