:020000041002E8
:10401C0010B50C480C4A121A002100F0B1F90B48EB
:10402C000B4A121A0B4900F069F90B480B4A121A89
:10403C000B4900F063F90B4A0B4B1A6000F042F984
:10404C0010BDC04600380620A838062000380620CF
:10405C000038062020440210A8380620A838062074
:10406C0020440210BBBB7159200000400021752375
:10407C00014AD1547047C0463038062030B57523FC
:10408C00104AD35C002B1CD11300012175229954CA
:10409C000D480168FF25A94372241A5D0A4302608A
:1040AC000A480168A9431A5D0A430260CF229200B4
:1040BC0007498A589268D07873215854D17A74225F
:1040CC00995430BD30380620582C0070682C007084
:1040DC0034D5052070B50D4B0021752299540C4D2B
:1040EC002968FF26B14373241A5D0A432A60094DDF
:1040FC002968B14374229A5C0A432A60064A116803
:10410C0011601A5DB321DDF791FB70BD30380620CC
:10411C00582C0070682C0070802C007070B5040056
:10412C000423994300D070BDB231DDF753FA05007A
:10413C007223114AD054002C18D1CF239B000F4A64
:10414C00D3589A68D1780C4B73201954D07A7422B6
:10415C009854002D02D17223074AD1547223064A77
:10416C00D25CB3212000DDF761FBDCE7CF239B00A1
:10417C00024AD358DA68E5E73038062034D50520F2
:10418C0010B5012900D010BD034B1A68D2B2B23160
:10419C00DDF74CFBF7E7C046582C007010B5104CFF
:1041AC00B22292000F4BA3500F4B104919601049CB
:1041BC0099601049D96010488350104AB321890086
:1041CC000F4B63500F4B104C1C60104C9C60104CF0
:1041DC00DC604350C0231B0351690B43536110BD7A
:1041EC0054D905202941021008380620B22381C178
:1041FC00003806202838062034D5052034D905206F
:10420C008D41021018380620B32381C12C380620AA
:10421C000438062010B5FFF731FF10BD10B50400AF
:10422C00FFF72CFF044B9C466444A40263695B0BB0
:10423C005B03636110BDC04605001C0010B5FFF7A1
:10424C0049FF10BD10B51A4A06210120E3F782FC84
:10425C00184C220002210020E3F77CFC22000121F3
:10426C000020E3F777FC220002210320E3F772FC25
:10427C00220001210320E3F76DFC2200022105201E
:10428C00E3F768FC220001210520E3F763FC220020
:10429C0002210620E3F75EFC220001210620E3F751
:1042AC0059FC054A0B210220E3F754FC10BDC04613
:1042BC0021420210294202104942021010B5FFF7A8
:1042CC006DFF10BD10B578220021084800F058F899
:1042DC00074A084B1A6008490220E0F701FBFFF778
:1042EC00C5FEFFF7AFFFFFF759FF10BD30380620B2
:1042FC00C942021068D4052051420210F0B50500E5
:10430C000F2A2FD90B0003439B0734D116000C0046
:10431C000300103E350901352D01451927681F6032
:10432C0067685F60A7689F60E7681034DF601033D0
:10433C009D42F3D10F239E431036851989191340E2
:10434C00032B1AD91E1F0023B4080134A400CF5824
:10435C00EF500433A342FAD10324A643331D224069
:10436C00C918ED18002A05D00023CC5CEC5401339D
:10437C009342FAD1F0BD0500F6E71A00F2E7C04609
:10438C00F0B5830743D0541E002A3FD0CEB20200B2
:10439C00032502E01A00013C38D3531C16702B4243
:1043AC00F8D1032C2AD9FF220A40150215432A04FE
:1043BC0015430F2C14D927001A00103F3E09013663
:1043CC0036019E19156055609560D5601032964285
:1043DC00F8D10F2297431037DB191440032C0DD959
:1043EC001A00271FBE080136B6009E1920C2B24221
:1043FC00FCD1032297430437DB191440002C05D061
:10440C00C9B21C19197001339C42FBD1F0BD1400C8
:04441C000300C6E7EC
:040000051002401D88
:00000001FF
