:020000041002E8
:10401C0010B50C480C4A121A002100F011FA0B488A
:10402C000B4A121A0B4900F0C9F90B480B4A121A29
:10403C000B4900F0C3F90B4A0B4B1A6000F084F9E2
:10404C0010BDC04600380620743806200038062003
:10405C0000380620FC440210743806207438062000
:10406C00FC440210BBBB715920000040704700009B
:10407C0030B583B004000D00E1F7AEFCC421200084
:10408C00DDF7C4FA2B490B680201120D0005000D77
:10409C00834393430B60012301930023009300227D
:1040AC0000212000E2F7FEF9234BE3189B025A682B
:1040BC0022490A405A601A6A03218A431A6229006B
:1040CC002000E2F713F9002C1CD11D490B680A687B
:1040DC00120C12041B48034013430B60012279217C
:1040EC000020DDF72DFB184B1B78184A94466344CF
:1040FC009B0201229A66164B1A600120DEF79AFB8E
:10410C0003B030BD0E490B680A68120C120411483A
:10411C00034013430B60012279212000DDF710FBD3
:10412C00094B1B78094A944663449B0201229A6608
:10413C00E3E7C046282C007005001C00FFFFFFFEC3
:10414C0060500070EFFF000054EA05200F001C00C7
:10415C0010540070DFFF0000F0B5DE4657464E46A7
:10416C004546E0B583B004000D00614B1B689A46D0
:10417C00604B1F68604B1B6899460D21E1F792FD5F
:10418C00C6B208212000E1F78DFDC3B298460C2180
:10419C002000E1F787FD01239B4600280DD0342138
:1041AC002000DDF717FA01902000E6F75DF8062DE8
:1041BC001AD8AD00514B5B599F4601212000E1F705
:1041CC0071FD0300581E83419B46E8E74C4B4A4661
:1041DC001A401300F12213439946002C13D0494F77
:1041EC00062813D0072817D0434B4A461A60404B79
:1041FC0052461A603F4B1F6003B03CBC9046994638
:10420C00A246AB46F0BD404B9A46E9E7C023DB0122
:10421C0052461A439246E7E706231F43E4E7002C75
:10422C0011D13A4B52461A4392464346002B04D0C6
:10423C00374B1F40BB22520017435B46002BD3D099
:10424C0070231F43D0E7F6231F43EEE7002C1DD14C
:10425C00304B52461A4392464346002B03D004235C
:10426C004A461A439146731F012B02D9023E012E76
:10427C00BAD8294B1B689B049B0FB5D14346002B26
:10428C0007D0264B4A461A439146ADE7214B1F43B4
:10429C00E2E708334A461A439146A5E7002C13D1AE
:1042AC001F4B52461A409246019B002B9CD1002E6C
:1042BC009AD04346002B97D1002C08D180231B01A8
:1042CC0052461A4392468FE7154B1F40ECE780236A
:1042DC001B011F4388E7012800D985E7002C02D079
:1042EC0002239F4380E70F4B52461A4092467BE7CE
:1042FC004C3000705030007054300070E0440210AC
:10430C00F3E7FFFFF7030000F7630000F66000001F
:10431C0076FEFFFF09140000002C00700808000056
:10432C00FFEFFFFFFFDFFFFF7047704710B5034A39
:10433C0009210320E3F70EFC10BDC04637430210E1
:10434C0010B5FFF7F1FF10BD10B574220021124813
:10435C0000F076F80023114A1360114A1360114AD9
:10436C00114B1A6011490220E0F7BAFAFFF77EFEF2
:10437C00FFF7DCFF0E4B0F49D822520099500E4923
:10438C00083A995000210020FFF7E6FE0021012099
:10439C00FFF7E2FE10BDC046003806205001087041
:1043AC00540108704D43021068D4052039430210A3
:1043BC0074D005207D40021065410210F0B5050057
:1043CC000F2A2FD90B0003439B0734D116000C0086
:1043DC000300103E350901352D01451927681F6072
:1043EC0067685F60A7689F60E7681034DF60103310
:1043FC009D42F3D10F239E43103685198919134022
:10440C00032B1AD91E1F0023B4080134A400CF5863
:10441C00EF500433A342FAD10324A643331D2240A8
:10442C00C918ED18002A05D00023CC5CEC540133DC
:10443C009342FAD1F0BD0500F6E71A00F2E7C04648
:10444C00F0B5830743D0541E002A3FD0CEB20200F1
:10445C00032502E01A00013C38D3531C16702B4282
:10446C00F8D1032C2AD9FF220A40150215432A043D
:10447C0015430F2C14D927001A00103F3E090136A2
:10448C0036019E19156055609560D56010329642C4
:10449C00F8D10F2297431037DB191440032C0DD998
:1044AC001A00271FBE080136B6009E1920C2B24260
:1044BC00FCD1032297430437DB191440002C05D0A0
:1044CC00C9B21C19197001339C42FBD1F0BD140008
:1044DC000300C6E7D84102102A42021058420210CB
:1044EC00A8420210F4410210F4410210E242021000
:040000051002401D88
:00000001FF
