:020000041002E8
:10401C0010B50C480C4A121A002100F0B5F90B48E7
:10402C000B4A121A0B4900F06DF90B480B4A121A85
:10403C000B4900F067F90B4A0B4B1A6000F046F97C
:10404C0010BDC046003806201E3806200038062059
:10405C0000380620384402101E3806201E38062070
:10406C0038440210BBBB715920000040704700005F
:10407C00024B20221A80D8325A7170471838062009
:10408C0070B50A4B1C68A404A40C07251E00642000
:10409C00E0F7E8FE33689B049B0CE418A4B2013DE6
:1040AC00EDB2002DF3D1E00870BDC0467450007025
:1040BC0070B505000804204E3188DCF796F9C01362
:1040CC0084B22200B1212800DDF7F6FB00237380B7
:1040DC004B2C16D9852C10D91F33FF339C420ED98B
:1040EC004B33FF339C4206D9134B5A8821212800AD
:1040FC00DDF7E2FB70BD032304E0012302E00223A1
:10410C0000E000230C4C04335B000C4A9B5A638088
:10411C002800DDF7F7FA43B2237162880520205698
:10412C00C01A13008340002802DD034A5380DBE7EA
:10413C0040421300C340F8E7183806202844021008
:10414C00F0B5CE4600B582B00190FFF791FF3D4C23
:10415C00256801239C461D403B4B1F681E681A684E
:10416C003A491140A02212030A431A601A683849CE
:10417C000A401A601A68374989460A408020C000F4
:10418C0002431A601A6834491140802292010A4392
:10419C001A601A6831491140802252010A431A6090
:1041AC002F490B684A46134018430860236862463F
:1041BC00934323600B689B0A9A022A4B1B889B052E
:1041CC009B0D13430B6064246420E0F74BFE013C11
:1041DC00002CF9D1019C2000FFF752FF01002000B8
:1041EC00FFF766FF1E4A13689B0A9B021360136855
:1041FC00184803401360134A136801218B432B4367
:10420C001360114B1968144A114019601A68024066
:10421C001A601A6811490A401A601A680B490A4058
:10422C00E02109030F4017431F601A6808490A4030
:10423C00E021C9030E4016431E6002B004BC914637
:10424C00F0BDC0468C300070004C0070FFFFF1FFD9
:10425C00FFFF8FFFFFFBFFFFFFDFFFFFFFEFFFFF06
:10426C008830007018380620094B0A4A1A600A4A2E
:10427C009A60DA6009490A60B122920008498B50B1
:10428C00084A80239B0251690B4353617047C04617
:10429C0004380620B12382C10038062014380620C9
:1042AC0034D5052034D9052010B5FFF749FF10BDD2
:1042BC0010B5034A06210120E3F74CFC10BDC046A3
:1042CC00B542021010B5FFF7CFFF10BD10B5062296
:1042DC000021084800F058F8074A084B1A600849B2
:1042EC000220E0F7FDFAFFF7C1FEFFF7E1FFFFF751
:1042FC00BBFF10BD18380620D142021068D405202F
:10430C00BD420210F0B505000F2A2FD90B00034354
:10431C009B0734D116000C000300103E3509013503
:10432C002D01451927681F6067685F60A7689F604B
:10433C00E7681034DF6010339D42F3D10F239E43A6
:10434C001036851989191340032B1AD91E1F002307
:10435C00B4080134A400CF58EF500433A342FAD16F
:10436C000324A643331D2240C918ED18002A05D09A
:10437C000023CC5CEC5401339342FAD1F0BD050020
:10438C00F6E71A00F2E7C046F0B5830743D0541E97
:10439C00002A3FD0CEB20200032502E01A00013CF5
:1043AC0038D3531C16702B42F8D1032C2AD9FF2278
:1043BC000A40150215432A0415430F2C14D9270063
:1043CC001A00103F3E09013636019E1915605560E2
:1043DC009560D56010329642F8D10F229743103772
:1043EC00DB191440032C0DD91A00271FBE08013607
:1043FC00B6009E1920C2B242FCD103229743043767
:10440C00DB191440002C05D0C9B21C1919700133EA
:10441C009C42FBD1F0BD14000300C6E74B008500A5
:0C442C001E0168020000CC0180024D035C
:040000051002401D88
:00000001FF
