:104000001000000000040004F6C8986C0040021084
:104010001D40021032ADD25DBBBB715910B50C48CA
:104020000C4A121A002100F0FDF80B480B4A121A34
:104030000B4900F0B5F80B480B4A121A0B4900F077
:10404000AFF80B4A0B4B1A6000F08EF810BDC0465B
:10405000003806208C38062000380620003806205C
:10406000C44202108C3806208C380620C44202104C
:10407000BBBB7159200000407047000070B584B090
:1040800001AC134B220003CB03C2198811809B782B
:1040900093708022D2040F4B1A6024220E4B1A60B8
:1040A0000E4D0020AB68984702202B699847AE6AF6
:1040B000E12149020A48B04701211520B0470121FA
:1040C0001620B0476B690B212000984704B070BDE3
:1040D000B84202100C30007010300070F85500101B
:1040E00001000002B122920009490A4B99500A4B83
:1040F0000A4919600A4999600A49D9600A498B50EE
:104100000A4A80239B0251690B4353617047C046A2
:104110003141021054D9052000380620B12381C155
:10412000143806201038062034D5052034D905204F
:1041300010B50423994300D010BDB131DDF750FA1A
:10414000FF28F9D1FFF79AFFF6E7704710B5034A49
:1041500009210320E3F704FD10BDC0464B410210C6
:1041600010B5FFF7BFFF10BD10B57422002108483D
:1041700000F058F8074A084B1A6008490220E0F797
:10418000B5FBFFF779FFFFF7E1FFFFF7ABFF10BDCE
:10419000183806206141021068D405204D410210F4
:1041A000F0B505000F2A2FD90B0003439B0734D12C
:1041B00016000C000300103E350901352D0145198C
:1041C00027681F6067685F60A7689F60E7681034B2
:1041D000DF6010339D42F3D10F239E4310368519C3
:1041E00089191340032B1AD91E1F0023B408013468
:1041F000A400CF58EF500433A342FAD10324A643BE
:10420000331D2240C918ED18002A05D00023CC5CCC
:10421000EC5401339342FAD1F0BD0500F6E71A00E1
:10422000F2E7C046F0B5830743D0541E002A3FD0C2
:10423000CEB20200032502E01A00013C38D3531C21
:1042400016702B42F8D1032C2AD9FF220A401502FE
:1042500015432A0415430F2C14D927001A00103FC8
:104260003E09013636019E19156055609560D5608E
:1042700010329642F8D10F2297431037DB191440C1
:10428000032C0DD91A00271FBE080136B6009E194F
:1042900020C2B242FCD1032297430437DB191440F9
:1042A000002C05D0C9B21C19197001339C42FBD1F6
:1042B000F0BD14000300C6E748616C6C6F205765C1
:1042C0006C7400000000000000000000000000000E
:1042D00000000000000000000000000000000000DE
:1042E00000000000000000000000000000000000CE
:1042F00000000000000000000000000000000000BE
:1043000000000000000000000000000000000000AD
:10431000000000000000000000000000000000009D
:10432000000000000000000000000000000000008D
:10433000000000000000000000000000000000007D
:10434000000000000000000000000000000000006D
:10435000000000000000000000000000000000005D
:10436000000000000000000000000000000000004D
:10437000000000000000000000000000000000003D
:10438000000000000000000000000000000000002D
:10439000000000000000000000000000000000001D
:1043A000000000000000000000000000000000000D
:1043B00000000000000000000000000000000000FD
:1043C00000000000000000000000000000000000ED
:1043D00000000000000000000000000000000000DD
:1043E00000000000000000000000000000000000CD
:1043F0000000000000000000000000008025D54AF9
:00000001FF
