:104000001000000000080008C0B04919004002106C
:104010001D40021032ADD25DBBBB715910B50C48CA
:104020000C4A121A002100F03BFB0B480B4A121AF3
:104030000B4900F0F3FA0B480B4A121A0B4900F037
:10404000EDFA0B4A0B4B1A6000F0CCFA10BDC046DB
:1040500000380620A839062000380620003806203F
:1040600034470210A8390620A83906203447021028
:10407000BBBB715920000040F8B5DE4657464E469E
:104080004546E0B50400B121DDF7E6FAC00A80B28A
:10409000C30602D520256D42284305B2B121200078
:1040A000DDF7DAFA4205520D430500D57DE0130035
:1040B0001BB21A00AA409346002D00DC78E0B22122
:1040C0002000DDF7C9FAC00A80B2C30602D5202558
:1040D0006D42284305B2B2212000DDF7BDFA42054A
:1040E000520D430568D413001BB21E00AE40002DD4
:1040F00065DDB3212000DDF7AFFAC00A80B2C30648
:1041000002D520235B42184307B2B3212000DDF71C
:10411000A3FA4205520D430555D413001BB21D00EE
:10412000BD40002F52DDB4212000DDF795FAC00A12
:1041300080B2C30602D520235B42184307B2B421E4
:104140002000DDF789FA4205520D430542D41300E1
:104150001BB21A00BA40002F3FDD904646212000D6
:10416000DDF77AFAC00A80B2C30602D520235B428B
:10417000184307B246212000DDF76EFA4205520DC2
:1041800043052ED413001BB21A00BA40002F2BDDBA
:104190009146904503D2454501D2AE4228D33CBC5E
:1041A00090469946A246AB46F8BD994B13437FE72C
:1041B0006D422B419B4682E7954B134394E76D423A
:1041C0002B411E0095E7924B1343A7E7784203412A
:1041D0001D00A8E78E4B1343BAE7784203411A004B
:1041E000BBE78B4B1343CEE7784203411A00CFE77E
:1041F0008C212000DDF730FAC00A80B2C30602D558
:1042000020235B42184303B29A468C212000DDF73D
:1042100023FA43055B0D42051AD41A0012B21300AB
:1042200051468B40002916DD5F46994541D9984596
:104230004BD803207222774988524744BB4214D39B
:10424000002C0CD1B7239B00734AD3589D68BBE068
:104250006F4A1A43E2E7484213000341E4E7B723F9
:104260009B006D4AD358DD68AEE07423694AD35A87
:10427000002B10D0012B00D0C3E0002C05D1B723B8
:104280009B00654AD3589D689EE0B7239B00624A15
:10429000D358DD6898E0002C05D1B7239B005E4A17
:1042A000D3589D6890E0B7239B005B4AD358DD68E4
:1042B0008AE0984509D89D4241D89E4279D8554B0D
:1042C0007222995A0232995269E79D4237D80220E8
:1042D0007222504988527D19AB420DD3002C05D172
:1042E000B6239B004C4AD3589D686DE0B6239B00D3
:1042F000494AD358DD6867E07423464AD35A002BF5
:104300000FD0032B7DD1002C05D1B6239B00424A50
:10431000D3589D6858E0B6239B003F4AD358DD68C8
:1043200052E0002C05D1B6239B003B4AD3589D6830
:104330004AE0B6239B00384AD358DD6844E09E42E9
:1043400037D80120722233498852BE19B3420DD3A7
:10435000002C05D1B5239B002F4AD3589D6833E02C
:10436000B5239B002C4AD358DD682DE07423294ADD
:10437000D35A022B0FD0032B43D1002C05D1B523E8
:104380009B00254AD3589D681EE0B5239B00224A16
:10439000D358DD6818E0002C05D1B5239B001E4AD8
:1043A000D3589D6810E0B5239B001B4AD358DD68A5
:1043B0000AE000217223174AD152002C1BD1CF23CF
:1043C0009B00154AD3589D68124B7222995A0232AB
:1043D000995200242A7869782000E1F773FF0134AC
:1043E000E4B202350C2C00D1D9E60B2CF2D10B4BE8
:1043F0001A681A60D3E6CF239B00074AD358DD68BA
:10440000E2E7044B7222995A02329952C7E6C0463B
:1044100000F8FFFF3039062034D50520802C0070CD
:1044200070B5CF239B000A4AD3589D6800242A7890
:1044300069782000E1F746FF0134E4B202350C2C24
:10444000F5D1044B002274215A5202395A5270BDE0
:1044500034D50520303906207047000030B5304A89
:10446000304B536008201870002159702E4B136098
:104470002E4B93602E4BD3602E4BB124A4001A51C7
:104480002D4D2E4A2E4C5460207061702D4C1460BE
:104490002D4C94602D4CD460B224A4001A512C4AA7
:1044A0002C4C5460207061702B4C14602B4C946029
:1044B0002B4CD460B324A4001A512A4A2A4C5460CD
:1044C0002070617029491160294991602949D160A2
:1044D000B42189005A50284A28491160284991601E
:1044E0002849D160B52189005A50274A27491160CF
:1044F000274991602749D160B62189005A50264A40
:1045000026491160264991602649D160B72189006A
:104510005A50FE231B046A6913436B6130BDC046C9
:10452000203906203C380620B12382C3B03806204B
:104530000439062034D5052034D90520503806200A
:1045400060380620B22382C37C3806203838062023
:10455000B438062064380620B32382C30839062005
:10456000183806201039062078380620B42382C374
:104570000C3906201C380620C4380620B556D8C190
:10458000803806209838062068380620B656D8C1EC
:10459000D43806202038062040380620B756D8C127
:1045A00000380620EC3806207047000010B5084A95
:1045B00009210320E3F7D4FA064A09210120E3F791
:1045C000CFFA054A0C210320E3F7CAFA10BDC04612
:1045D000A9450210214402107940021010B5FFF7DE
:1045E0003DFF10BD10B578220021084800F058F8B2
:1045F000074A084B1A6008490220E0F777F9FFF7ED
:104600002BFFFFF7D3FFFFF729FF10BD303906203E
:10461000DD45021068D40520AD450210F0B5050057
:104620000F2A2FD90B0003439B0734D116000C002F
:104630000300103E350901352D01451927681F601B
:1046400067685F60A7689F60E7681034DF601033B9
:104650009D42F3D10F239E431036851989191340CB
:10466000032B1AD91E1F0023B4080134A400CF580D
:10467000EF500433A342FAD10324A643331D224052
:10468000C918ED18002A05D00023CC5CEC54013386
:104690009342FAD1F0BD0500F6E71A00F2E7C046F2
:1046A000F0B5830743D0541E002A3FD0CEB202009B
:1046B000032502E01A00013C38D3531C16702B422C
:1046C000F8D1032C2AD9FF220A40150215432A04E7
:1046D00015430F2C14D927001A00103F3E0901364C
:1046E00036019E19156055609560D560103296426E
:1046F000F8D10F2297431037DB191440032C0DD942
:104700001A00271FBE080136B6009E1920C2B24209
:10471000FCD1032297430437DB191440002C05D049
:10472000C9B21C19197001339C42FBD1F0BD1400B1
:104730000300C6E7000000000000000000000000C9
:104740000000000000000000000000000000000069
:104750000000000000000000000000000000000059
:104760000000000000000000000000000000000049
:104770000000000000000000000000000000000039
:104780000000000000000000000000000000000029
:104790000000000000000000000000000000000019
:1047A0000000000000000000000000000000000009
:1047B00000000000000000000000000000000000F9
:1047C00000000000000000000000000000000000E9
:1047D00000000000000000000000000000000000D9
:1047E00000000000000000000000000000000000C9
:1047F000000000000000000000000000EC3729B8B5
:00000001FF
